{
    "contractName": "DVideo",
    "abi": [
        {
            "anonymous": false,
            "inputs": [
                {
                    "indexed": false,
                    "internalType": "uint256",
                    "name": "id",
                    "type": "uint256"
                },
                {
                    "indexed": false,
                    "internalType": "string",
                    "name": "hash",
                    "type": "string"
                },
                {
                    "indexed": false,
                    "internalType": "string",
                    "name": "title",
                    "type": "string"
                },
                {
                    "indexed": false,
                    "internalType": "address",
                    "name": "author",
                    "type": "address"
                }
            ],
            "name": "VideoUploaded",
            "type": "event"
        },
        {
            "inputs": [],
            "name": "listVideos",
            "outputs": [],
            "stateMutability": "nonpayable",
            "type": "function"
        },
        {
            "inputs": [],
            "name": "name",
            "outputs": [
                {
                    "internalType": "string",
                    "name": "",
                    "type": "string"
                }
            ],
            "stateMutability": "view",
            "type": "function"
        },
        {
            "inputs": [
                {
                    "internalType": "string",
                    "name": "_videoHash",
                    "type": "string"
                },
                {
                    "internalType": "string",
                    "name": "_title",
                    "type": "string"
                }
            ],
            "name": "uploadVideo",
            "outputs": [],
            "stateMutability": "nonpayable",
            "type": "function"
        },
        {
            "inputs": [],
            "name": "videoCount",
            "outputs": [
                {
                    "internalType": "uint256",
                    "name": "",
                    "type": "uint256"
                }
            ],
            "stateMutability": "view",
            "type": "function"
        },
        {
            "inputs": [
                {
                    "internalType": "uint256",
                    "name": "",
                    "type": "uint256"
                }
            ],
            "name": "videos",
            "outputs": [
                {
                    "internalType": "uint256",
                    "name": "id",
                    "type": "uint256"
                },
                {
                    "internalType": "string",
                    "name": "hash",
                    "type": "string"
                },
                {
                    "internalType": "string",
                    "name": "title",
                    "type": "string"
                },
                {
                    "internalType": "address",
                    "name": "author",
                    "type": "address"
                }
            ],
            "stateMutability": "view",
            "type": "function"
        }
    ],
    "bytecode": "6000805560c0604052600660808190526544566964656f60d01b60a090815261002b916001919061003e565b5034801561003857600080fd5b50610111565b82805461004a906100d7565b90600052602060002090601f01602090048101928261006c57600085556100b2565b82601f1061008557805160ff19168380011785556100b2565b828001600101855582156100b2579182015b828111156100b2578251825591602001919060010190610097565b506100be9291506100c2565b5090565b5b808211156100be57600081556001016100c3565b600181811c908216806100eb57607f821691505b60208210810361010b57634e487b7160e01b600052602260045260246000fd5b50919050565b610727806101206000396000f3fe608060405234801561001057600080fd5b50600436106100575760003560e01c806306fdde031461005c5780631fffa0f61461007a5780638a5447c51461007c578063c61b5f4c1461008f578063e6821bf5146100a6575b600080fd5b6100646100c9565b6040516100719190610511565b60405180910390f35b005b61007a61008a3660046105ce565b610157565b61009860005481565b604051908152602001610071565b6100b96100b4366004610632565b6102e9565b604051610071949392919061064b565b600180546100d690610690565b80601f016020809104026020016040519081016040528092919081815260200182805461010290610690565b801561014f5780601f106101245761010080835404028352916020019161014f565b820191906000526020600020905b81548152906001019060200180831161013257829003601f168201915b505050505081565b60008251116101ad5760405162461bcd60e51b815260206004820152601b60248201527f566964656f20486173682063616e6e6f7420626520656d7074792e000000000060448201526064015b60405180910390fd5b60008151116101f65760405162461bcd60e51b81526020600482015260156024820152745469746c652063616e6e6f7420626520656d70747960581b60448201526064016101a4565b3361020057600080fd5b60008054908061020f836106ca565b9091555050604080516080810182526000805480835260208084018781528486018790523360608601529183526002815293909120825181559051805192939192610260926001850192019061042b565b506040820151805161027c91600284019160209091019061042b565b5060609190910151600390910180546001600160a01b0319166001600160a01b039092169190911790556000546040517f2c44b862f4b4e08a26a765f9499900759a9ec95360a6f174d53163bd5d367f67916102dd9185908590339061064b565b60405180910390a15050565b6002602052600090815260409020805460018201805491929161030b90610690565b80601f016020809104026020016040519081016040528092919081815260200182805461033790610690565b80156103845780601f1061035957610100808354040283529160200191610384565b820191906000526020600020905b81548152906001019060200180831161036757829003601f168201915b50505050509080600201805461039990610690565b80601f01602080910402602001604051908101604052809291908181526020018280546103c590610690565b80156104125780601f106103e757610100808354040283529160200191610412565b820191906000526020600020905b8154815290600101906020018083116103f557829003601f168201915b505050600390930154919250506001600160a01b031684565b82805461043790610690565b90600052602060002090601f016020900481019282610459576000855561049f565b82601f1061047257805160ff191683800117855561049f565b8280016001018555821561049f579182015b8281111561049f578251825591602001919060010190610484565b506104ab9291506104af565b5090565b5b808211156104ab57600081556001016104b0565b6000815180845260005b818110156104ea576020818501810151868301820152016104ce565b818111156104fc576000602083870101525b50601f01601f19169290920160200192915050565b60208152600061052460208301846104c4565b9392505050565b634e487b7160e01b600052604160045260246000fd5b600082601f83011261055257600080fd5b813567ffffffffffffffff8082111561056d5761056d61052b565b604051601f8301601f19908116603f011681019082821181831017156105955761059561052b565b816040528381528660208588010111156105ae57600080fd5b836020870160208301376000602085830101528094505050505092915050565b600080604083850312156105e157600080fd5b823567ffffffffffffffff808211156105f957600080fd5b61060586838701610541565b9350602085013591508082111561061b57600080fd5b5061062885828601610541565b9150509250929050565b60006020828403121561064457600080fd5b5035919050565b84815260806020820152600061066460808301866104c4565b828103604084015261067681866104c4565b91505060018060a01b038316606083015295945050505050565b600181811c908216806106a457607f821691505b6020821081036106c457634e487b7160e01b600052602260045260246000fd5b50919050565b6000600182016106ea57634e487b7160e01b600052601160045260246000fd5b506001019056fea2646970667358221220abb88962689fa94de9f8f05e4bed680d38e35b42ee42e369233082dd41d710dc64736f6c634300080d0033",
    "sourcePath": "d:/PoC/ethereum/workspace/eth_youtube/contracts/DVideo.sol",
    "compiler": {
        "name": "solc",
        "version": "0.8.13+commit.abaa5c0e"
    },
    "functionHashes": {
        "listVideos()": "1fffa0f6",
        "name()": "06fdde03",
        "uploadVideo(string,string)": "8a5447c5",
        "videoCount()": "c61b5f4c",
        "videos(uint256)": "e6821bf5"
    },
    "gasEstimates": {
        "creation": {
            "codeDepositCost": "366200",
            "executionCost": "infinite",
            "totalCost": "infinite"
        },
        "external": {
            "listVideos()": "120",
            "name()": "infinite",
            "uploadVideo(string,string)": "infinite",
            "videoCount()": "2339",
            "videos(uint256)": "infinite"
        }
    }
}